{
  "address": "0x0F527785e39B22911946feDf580d87a4E00465f0",
  "abi": [
    {
      "inputs": [],
      "name": "DAI",
      "outputs": [
        {
          "internalType": "address",
          "name": "",
          "type": "address"
        }
      ],
      "stateMutability": "view",
      "type": "function"
    },
    {
      "inputs": [],
      "name": "USDC",
      "outputs": [
        {
          "internalType": "address",
          "name": "",
          "type": "address"
        }
      ],
      "stateMutability": "view",
      "type": "function"
    },
    {
      "inputs": [],
      "name": "WETH9",
      "outputs": [
        {
          "internalType": "address",
          "name": "",
          "type": "address"
        }
      ],
      "stateMutability": "view",
      "type": "function"
    },
    {
      "inputs": [],
      "name": "poolFee",
      "outputs": [
        {
          "internalType": "uint24",
          "name": "",
          "type": "uint24"
        }
      ],
      "stateMutability": "view",
      "type": "function"
    },
    {
      "inputs": [
        {
          "internalType": "uint256",
          "name": "amountIn",
          "type": "uint256"
        }
      ],
      "name": "swapExactInputSingle",
      "outputs": [
        {
          "internalType": "uint256",
          "name": "amountOut",
          "type": "uint256"
        }
      ],
      "stateMutability": "nonpayable",
      "type": "function"
    },
    {
      "inputs": [
        {
          "internalType": "uint256",
          "name": "amountOut",
          "type": "uint256"
        },
        {
          "internalType": "uint256",
          "name": "amountInMaximum",
          "type": "uint256"
        }
      ],
      "name": "swapExactOutputSingle",
      "outputs": [
        {
          "internalType": "uint256",
          "name": "amountIn",
          "type": "uint256"
        }
      ],
      "stateMutability": "nonpayable",
      "type": "function"
    },
    {
      "inputs": [],
      "name": "swapRouter",
      "outputs": [
        {
          "internalType": "contract ISwapRouter",
          "name": "",
          "type": "address"
        }
      ],
      "stateMutability": "view",
      "type": "function"
    }
  ],
  "transactionHash": "0xeba5f41ad3bb0b413d58dd3a733b69fcbac3cd34084e6f1563d632c4b4540d5c",
  "args": [],
  "numDeployments": 1,
  "solcInputHash": "0452c48c4a4fd9498d30c7a1310db879",
  "bytecode": "0x60a060405273e592427a0aece92de3edee1f18e0157c0586156473ffffffffffffffffffffffffffffffffffffffff1660809073ffffffffffffffffffffffffffffffffffffffff1681525034801561005757600080fd5b5060805161110d610096600039600081816101d2015281816102c00152818161037c015281816103da015281816104c70152610585015261110d6000f3fe608060405234801561001057600080fd5b506004361061007d5760003560e01c806389a302711161005b57806389a30271146100ee578063c31c9c071461010c578063c4b69a181461012a578063e0bab4c41461015a5761007d565b8063089fe6aa146100825780634aa4a4fc146100a057806373bd43ad146100be575b600080fd5b61008a610178565b6040516100979190610a15565b60405180910390f35b6100a861017e565b6040516100b59190610a71565b60405180910390f35b6100d860048036038101906100d39190610ac7565b610196565b6040516100e59190610b03565b60405180910390f35b6100f6610362565b6040516101039190610a71565b60405180910390f35b61011461037a565b6040516101219190610b7d565b60405180910390f35b610144600480360381019061013f9190610b98565b61039e565b6040516101519190610b03565b60405180910390f35b6101626105dd565b60405161016f9190610a71565b60405180910390f35b610bb881565b73c02aaa39b223fe8d0a0e5c4f27ead9083c756cc281565b60006101b873c02aaa39b223fe8d0a0e5c4f27ead9083c756cc23330856105f5565b6101f773c02aaa39b223fe8d0a0e5c4f27ead9083c756cc27f00000000000000000000000000000000000000000000000000000000000000008461074d565b600060405180610100016040528073c02aaa39b223fe8d0a0e5c4f27ead9083c756cc273ffffffffffffffffffffffffffffffffffffffff168152602001736b175474e89094c44da98b954eedeac495271d0f73ffffffffffffffffffffffffffffffffffffffff168152602001610bb862ffffff1681526020013373ffffffffffffffffffffffffffffffffffffffff16815260200142815260200184815260200160008152602001600073ffffffffffffffffffffffffffffffffffffffff1681525090507f000000000000000000000000000000000000000000000000000000000000000073ffffffffffffffffffffffffffffffffffffffff1663414bf389826040518263ffffffff1660e01b81526004016103179190610cb6565b6020604051808303816000875af1158015610336573d6000803e3d6000fd5b505050506040513d601f19601f8201168201806040525081019061035a9190610ce7565b915050919050565b73a0b86991c6218b36c1d19d4a2e9eb0ce3606eb4881565b7f000000000000000000000000000000000000000000000000000000000000000081565b60006103c073c02aaa39b223fe8d0a0e5c4f27ead9083c756cc23330856105f5565b6103ff73c02aaa39b223fe8d0a0e5c4f27ead9083c756cc27f00000000000000000000000000000000000000000000000000000000000000008461074d565b600060405180610100016040528073c02aaa39b223fe8d0a0e5c4f27ead9083c756cc273ffffffffffffffffffffffffffffffffffffffff168152602001736b175474e89094c44da98b954eedeac495271d0f73ffffffffffffffffffffffffffffffffffffffff168152602001610bb862ffffff1681526020013373ffffffffffffffffffffffffffffffffffffffff168152602001428152602001858152602001848152602001600073ffffffffffffffffffffffffffffffffffffffff1681525090507f000000000000000000000000000000000000000000000000000000000000000073ffffffffffffffffffffffffffffffffffffffff1663db3e2198826040518263ffffffff1660e01b815260040161051e9190610db6565b6020604051808303816000875af115801561053d573d6000803e3d6000fd5b505050506040513d601f19601f820116820180604052508101906105619190610ce7565b9150828210156105d6576105ab73c02aaa39b223fe8d0a0e5c4f27ead9083c756cc27f0000000000000000000000000000000000000000000000000000000000000000600061074d565b6105d573c02aaa39b223fe8d0a0e5c4f27ead9083c756cc23384866105d09190610e01565b6108a2565b5b5092915050565b736b175474e89094c44da98b954eedeac495271d0f81565b6000808573ffffffffffffffffffffffffffffffffffffffff166323b872dd60e01b86868660405160240161062c93929190610e35565b604051602081830303815290604052907bffffffffffffffffffffffffffffffffffffffffffffffffffffffff19166020820180517bffffffffffffffffffffffffffffffffffffffffffffffffffffffff83818316178352505050506040516106969190610edd565b6000604051808303816000865af19150503d80600081146106d3576040519150601f19603f3d011682016040523d82523d6000602084013e6106d8565b606091505b509150915081801561070657506000815114806107055750808060200190518101906107049190610f2c565b5b5b610745576040517f08c379a000000000000000000000000000000000000000000000000000000000815260040161073c90610fb6565b60405180910390fd5b505050505050565b6000808473ffffffffffffffffffffffffffffffffffffffff1663095ea7b360e01b8585604051602401610782929190610fd6565b604051602081830303815290604052907bffffffffffffffffffffffffffffffffffffffffffffffffffffffff19166020820180517bffffffffffffffffffffffffffffffffffffffffffffffffffffffff83818316178352505050506040516107ec9190610edd565b6000604051808303816000865af19150503d8060008114610829576040519150601f19603f3d011682016040523d82523d6000602084013e61082e565b606091505b509150915081801561085c575060008151148061085b57508080602001905181019061085a9190610f2c565b5b5b61089b576040517f08c379a00000000000000000000000000000000000000000000000000000000081526004016108929061104b565b60405180910390fd5b5050505050565b6000808473ffffffffffffffffffffffffffffffffffffffff1663a9059cbb60e01b85856040516024016108d7929190610fd6565b604051602081830303815290604052907bffffffffffffffffffffffffffffffffffffffffffffffffffffffff19166020820180517bffffffffffffffffffffffffffffffffffffffffffffffffffffffff83818316178352505050506040516109419190610edd565b6000604051808303816000865af19150503d806000811461097e576040519150601f19603f3d011682016040523d82523d6000602084013e610983565b606091505b50915091508180156109b157506000815114806109b05750808060200190518101906109af9190610f2c565b5b5b6109f0576040517f08c379a00000000000000000000000000000000000000000000000000000000081526004016109e7906110b7565b60405180910390fd5b5050505050565b600062ffffff82169050919050565b610a0f816109f7565b82525050565b6000602082019050610a2a6000830184610a06565b92915050565b600073ffffffffffffffffffffffffffffffffffffffff82169050919050565b6000610a5b82610a30565b9050919050565b610a6b81610a50565b82525050565b6000602082019050610a866000830184610a62565b92915050565b600080fd5b6000819050919050565b610aa481610a91565b8114610aaf57600080fd5b50565b600081359050610ac181610a9b565b92915050565b600060208284031215610add57610adc610a8c565b5b6000610aeb84828501610ab2565b91505092915050565b610afd81610a91565b82525050565b6000602082019050610b186000830184610af4565b92915050565b6000819050919050565b6000610b43610b3e610b3984610a30565b610b1e565b610a30565b9050919050565b6000610b5582610b28565b9050919050565b6000610b6782610b4a565b9050919050565b610b7781610b5c565b82525050565b6000602082019050610b926000830184610b6e565b92915050565b60008060408385031215610baf57610bae610a8c565b5b6000610bbd85828601610ab2565b9250506020610bce85828601610ab2565b9150509250929050565b610be181610a50565b82525050565b610bf0816109f7565b82525050565b610bff81610a91565b82525050565b610c0e81610a30565b82525050565b61010082016000820151610c2b6000850182610bd8565b506020820151610c3e6020850182610bd8565b506040820151610c516040850182610be7565b506060820151610c646060850182610bd8565b506080820151610c776080850182610bf6565b5060a0820151610c8a60a0850182610bf6565b5060c0820151610c9d60c0850182610bf6565b5060e0820151610cb060e0850182610c05565b50505050565b600061010082019050610ccc6000830184610c14565b92915050565b600081519050610ce181610a9b565b92915050565b600060208284031215610cfd57610cfc610a8c565b5b6000610d0b84828501610cd2565b91505092915050565b61010082016000820151610d2b6000850182610bd8565b506020820151610d3e6020850182610bd8565b506040820151610d516040850182610be7565b506060820151610d646060850182610bd8565b506080820151610d776080850182610bf6565b5060a0820151610d8a60a0850182610bf6565b5060c0820151610d9d60c0850182610bf6565b5060e0820151610db060e0850182610c05565b50505050565b600061010082019050610dcc6000830184610d14565b92915050565b7f4e487b7100000000000000000000000000000000000000000000000000000000600052601160045260246000fd5b6000610e0c82610a91565b9150610e1783610a91565b9250828203905081811115610e2f57610e2e610dd2565b5b92915050565b6000606082019050610e4a6000830186610a62565b610e576020830185610a62565b610e646040830184610af4565b949350505050565b600081519050919050565b600081905092915050565b60005b83811015610ea0578082015181840152602081019050610e85565b60008484015250505050565b6000610eb782610e6c565b610ec18185610e77565b9350610ed1818560208601610e82565b80840191505092915050565b6000610ee98284610eac565b915081905092915050565b60008115159050919050565b610f0981610ef4565b8114610f1457600080fd5b50565b600081519050610f2681610f00565b92915050565b600060208284031215610f4257610f41610a8c565b5b6000610f5084828501610f17565b91505092915050565b600082825260208201905092915050565b7f5354460000000000000000000000000000000000000000000000000000000000600082015250565b6000610fa0600383610f59565b9150610fab82610f6a565b602082019050919050565b60006020820190508181036000830152610fcf81610f93565b9050919050565b6000604082019050610feb6000830185610a62565b610ff86020830184610af4565b9392505050565b7f5341000000000000000000000000000000000000000000000000000000000000600082015250565b6000611035600283610f59565b915061104082610fff565b602082019050919050565b6000602082019050818103600083015261106481611028565b9050919050565b7f5354000000000000000000000000000000000000000000000000000000000000600082015250565b60006110a1600283610f59565b91506110ac8261106b565b602082019050919050565b600060208201905081810360008301526110d081611094565b905091905056fea2646970667358221220cc49f1c6be6ddd5a29badc23811d094d99c4dd21cf65e1465aa846d90fab238564736f6c63430008110033",
  "devdoc": {
    "kind": "dev",
    "methods": {},
    "version": 1
  },
  "userdoc": {
    "kind": "user",
    "methods": {},
    "version": 1
  },
  "storageLayout": {
    "storage": [],
    "types": null
  }
}